:020000040000FA
:0600000072EF1EF0120079
:0600080024EF1BF01200C2
:0600180077EF1BF012005F
:0E10000001000A3D0000F800000002000000A0
:02100E00D9CF38
:10101000E6FFE1CFD9FFE6520F015F6B626A160E61
:10102000616E9F0E5B6F7B0E606E648C5C6B030E5B
:10103000E66EE66AE66A540EE66E0F0EE66E48EC61
:101040001EF0146E050EE15E1450649CDF6ADF50E2
:10105000146E156A100E145C000E155810E2DF5065
:10106000040DF3CFE9FFF4CFEAFF000EE926020EEC
:10107000EA22EE6AEE6AEE6AEE6ADF2AE8D70F012C
:10108000160E536F62A602D06296FCD70001C16BA8
:10109000C66BC76BC86B6498080EB46F020EB56F51
:1010A000A66BA56BE552E552E7CFD9FF1200D9CF69
:1010B000E6FFE1CFD9FFE6520001A50507E164BADA
:1010C00005D0626A60806088020EA56F6250040BD2
:1010D00005E06050040B02E06294B8D864A202D02C
:1010E000A19483D06250010B12E06050010B0FE01D
:1010F0008EDF0001040EA56F0201400E026F020E8A
:10110000036F080E016F006B8C0E0013629062502B
:10111000100B05E06050100B02E086D86298625018
:10112000400B13E06050400B10E0010EE66EE66AE3
:10113000000EE66EE66A730EE66EE66AA7EC1CF039
:10114000146E060EE15E1450629C6250200B04E0A7
:101150006050200B01E04ED86250020B14E060504A
:10116000020B11E0010EE66EE66A000EE66EE66A1C
:10117000E6687F0EE66EA7EC1CF0146E060EE15ECC
:1011800014500F015F6B040E0001E76EA519E8AE65
:1011900002D0E73402D0E750A55D02E2A19425D049
:1011A00060A622D0DF6A040EDF5C1EE262A61BD0BE
:1011B00063CFCFF06296780E0001CF1502E15BD8C5
:1011C00010D0000EE66EE66ACF0EE66E000EE66EFA
:1011D000720EE66EE66AA7EC1CF0146E060EE15E77
:1011E0001450DF2AE0D700D0A194E552E552E7CFB2
:1011F000D9FF12000F0153A115D0A8C0E9FFA9C063
:10120000EAFFEF5080080DE1B4C0E9FFB5C0EAFF86
:10121000EF50840806E1A8C0E9FFA9C0EAFF8C0EE0
:10122000EF6E5391629A1200608462986482000E9D
:10123000E66EE66AE66EE66A750EE66EE66AA7ECAC
:101240001CF0146E060EE15E14501200000EE66EE5
:10125000E66AE66EE66A740EE66EE66AA7EC1CF0D5
:10126000146E060EE15E14506492609462A402D083
:101270006294FCD71200D9CFE6FFE1CFD9FFE65246
:10128000FD0E0001CF155AE17E0ECF15E8407F0B11
:10129000040DF3CFA8F0F4CFA9F0000EA827020E9A
:1012A000A923A8C0AAF0A9C0ABF0AA75A8C0E9FFFD
:1012B000A9C0EAFFEF503C0BE842E8420D083CE1D0
:1012C000A8C0E9FFA9C0EAFF020EE926000EEA2243
:1012D000EECF14F0EFCF15F0480E141802E1020E15
:1012E000151828E1A8C0E9FFA9C0EAFF020EE92607
:1012F000000EEA22400EEE6E020EED6EDF6ADF5047
:10130000146E156A080E145C000E155813E2DF50B7
:10131000EA6A480FE96E020EEA22EF50E66EDF50ED
:10132000EA6A400FE96E020EEA22E552E750EF6EDC
:10133000DF2AE5D70DD801D02ED805D0FD0ECF1568
:10134000040801E14FD8E552E552E7CFD9FF12007A
:10135000B4C0E9FFB5C0EAFFEF50800B05E0B4C0B0
:10136000E9FFB5C0EAFFEF6A0001BC6BBD6BC26B61
:10137000C36BC16BBDD8000EE66EE66AE66EE66A28
:10138000030EE66EE66AA7EC1CF0146E060EE15E34
:10139000145070EF0CF0020E0001BD5D03E1D3ECC0
:1013A0000DF01FD06FD80001D0511AE1AAC0E9FF9B
:1013B000ABC0EAFFEE52080EEF6EAAC0E9FFABC069
:1013C000EAFF020EE926000EEA22400EEE6E020E41
:1013D000ED6EAAC0E9FFABC0EAFF8C0EEF6E01D044
:1013E000D06B1200D9CFE6FFE1CFD9FFE652B4C0EF
:1013F000E9FFB5C0EAFFEF50400B01E0010EDF6EE0
:101400000001B475080EA55D0DE142C25CFF0F013D
:101410005C51000804E20001100EA56F03D000012A
:10142000040EA56FBD0528E1B4C0E9FFB5C0EAFF11
:10143000020EE926000EEA22480EEE6E020EED6E56
:1014400024DB020E0001BC5D07E1B4C0E9FFB5C0BA
:10145000EAFF840EEF6E0FD0DF5007E1B4C0E9FF62
:10146000B5C0EAFFC80EEF6E06D0B4C0E9FFB5C044
:10147000EAFF880EEF6E01D005D8E552E552E7CFBE
:10148000D9FF1200D9CFE6FFE1CFD9FF020EE12646
:101490000001BD6BB4C0E9FFB5C0EAFFEF6A040EFE
:1014A000B419146EB5C015F014C0DEFF15C0DDFF11
:1014B000DECFE9FFDDCFEAFFEF6AC6AF0FD0C9513B
:1014C000CA11CB1109E007D0CBC0FBFFCAC0FAFF9D
:1014D0000001C951F96EF8DF0001C69F020EE15C00
:1014E00002E2E16AE552E16EE552E7CFD9FF120070
:1014F00002014051600BE842E842E842E842E8421B
:10150000000901E058D041510C0A54E00B0A43E0B5
:101510000C0A35E0010A26E00B0A22E0020A20E06C
:10152000030A1CE0080A10E0010A0CE00F0A08E0B8
:10153000030A01E03FD00001C18F080EA56F3BD028
:10154000C7D839D0D1DB37D00001A60EBE6F000E50
:10155000BF6FC181010EC26FC18F2DD060D92BD05A
:101560002BD829D044510001BE6FBF6BA70EBE27F8
:10157000000EBF23C181010EC26FC18F1CD00001BC
:10158000C18F02014451EA6AA70FE96E000EEA22F8
:1015900042C2EFFF10D0000EE66EE66AE66EE66A23
:1015A000020EE66EE66AA7EC1CF0146E060EE15E13
:1015B000145001D000D01200D9CFE6FFE1CFD9FFFF
:1015C000040EE1260201420510E140511F0B000903
:1015D0000CE10001C18F030E0201415D04E1000135
:1015E000010ECE6F02D00001CE6B0201425166E1C6
:1015F00040511F0B020862E144510F0B00095EE0ED
:101600000001C18F020144BF10D044510F0BE96E9D
:10161000EA6AD890E936EA36AC0EE926000EEA22EC
:10162000EECFDEFFEDCFDDFF0FD044510F0BE96EA3
:10163000EA6AD890E936EA36B40EE926000EEA22C4
:10164000EECFDEFFEDCFDDFF030E415D07E1DECF24
:10165000E9FFDDCFEAFF840EEF6E30D044510F0B6F
:10166000156A530F146E0F0E1522020E14C0DBFF05
:10167000030E15C0DBFF020EDBCFE9FF030EDBCF4D
:10168000EAFFEF9044AF0DD0DECFE9FFDDCFEAFFF8
:10169000EF6ADF74DECFE9FFDDCFEAFF400EEF6EC9
:1016A0000DD0DECFE9FFDDCFEAFF880EEF6EDF74ED
:1016B000DECFE9FFDDCFEAFFC80EEF6E040EE15C7E
:1016C00002E2E16AE552E16EE552E7CFD9FF12008E
:1016D000800E0201405D01E0A1D00001C00EC16F8B
:1016E00002014351030A56E0010A10E0030A03E035
:1016F0000001C16B93D00001E40EBE6F390EBF6FC5
:10170000000EC06F120EC26FC36B88D0A50E146E90
:101710003A0E156E000E166E42C217F0186A196A5C
:10172000030E0C6E0D6A0E6A17C007F018C008F0A1
:1017300019C009F0A8EC1DF004C017F005C018F09E
:1017400006C019F014501724F36E15501820F46ECB
:1017500016501920F86EF4CFF7FFF3CFF6FF09000B
:10176000F5CFBEF00900F5CFBFF00800F5CFC0F00F
:10177000BEC0F6FFBFC0F7FFC0C0F8FF020EF626DE
:10178000000EF722F8220900F5CFC2F00A00F5CFCB
:10179000C3F044D0030E425D3EE2A80E146E3A0E32
:1017A000156E000E166E42C217F0186A196A030E03
:1017B0000C6E0D6A0E6A17C007F018C008F019C049
:1017C00009F0A8EC1DF004C017F005C018F006C021
:1017D00019F014501724F36E15501820F46E16509B
:1017E0001920F86EF4CFF7FFF3CFF6FF0900F5CF1D
:1017F000BEF00900F5CFBFF00800F5CFC0F0BEC0C5
:10180000F6FFBFC0F7FFC0C0F8FF0800F5500001A9
:10181000C26FC36B02D00001C16B00D01200D9CFE0
:10182000E6FFE1CFD9FF020EE1260201486B496BCA
:1018300040511F0B020A12E0030A0DE0010A01E009
:101840003BD00001C18F020148810001CE0502E1B9
:101850000201488331D00001C18F2ED00001C18F19
:10186000020144BF10D044510F0BE96EEA6AD890D0
:10187000E936EA36AC0EE926000EEA22EECFDEFFAC
:10188000EDCFDDFF0FD044510F0BE96EEA6AD8901F
:10189000E936EA36B40EE926000EEA22EECFDEFF84
:1018A000EDCFDDFFDECFE9FFDDCFEAFFEF50040B28
:1018B00002E0010E486F00D00001C1AF07D0480E12
:1018C000BE6F020EBF6FC181020EC26F020EE15CDD
:1018D00002E2E16AE552E16EE552E7CFD9FF12007C
:1018E00064980001C1BF4AD0C6AF28D0020EBD6FB8
:1018F000B4C0E9FFB5C0EAFFEE52EF6AB4C0E9FF39
:10190000B5C0EAFFC80EEF6EAAC0E9FFABC0EAFFA0
:10191000EE52080EEF6EAAC0E9FFABC0EAFF020E5E
:10192000E926000EEA22480EEE6E020EED6EAAC007
:10193000E9FFABC0EAFFC80EEF6E1FD0AAC0E9FFF7
:10194000ABC0EAFFEE52080EEF6EAAC0E9FFABC0D3
:10195000EAFF020EE926000EEA22400EEE6E020EAB
:10196000ED6EAAC0E9FFABC0EAFF8C0EEF6EB4C00B
:10197000E9FFB5C0EAFF840EEF6E86D0C6BF84D003
:10198000020140AF59D00001C2510201465D000181
:10199000C3510201475904E246C2C2F047C2C3F034
:1019A00074D80001010EBD6FAAC0E9FFABC0EAFF09
:1019B000EE52080EEF6EAAC0E9FFABC0EAFF020EBE
:1019C000E926000EEA22400EEE6E020EED6EAAC06F
:1019D000E9FFABC0EAFF800EEF6ED06BA8C0E9FF55
:1019E000A9C0EAFFEE52080EEF6EA8C0E9FFA9C039
:1019F000EAFF020EE926000EEA22400EEE6E020E0B
:101A0000ED6EA8C0E9FFA9C0EAFF840EEF6E010EDB
:101A1000D06FB4C0E9FFB5C0EAFF020EE926000EA0
:101A2000EA22480EEE6E020EED6EB4C0E9FFB5C0BC
:101A3000EAFFC80EEF6E28D00001020EBD6FB4C0E1
:101A4000E9FFB5C0EAFFEE52EF6AB4C0E9FFB5C0E6
:101A5000EAFFC80EEF6EAAC0E9FFABC0EAFFEE5284
:101A6000080EEF6EAAC0E9FFABC0EAFF020EE9263E
:101A7000000EEA22480EEE6E020EED6EAAC0E9FFDD
:101A8000ABC0EAFFC80EEF6E1200D9CFE6FFE1CF80
:101A9000D9FF020EE1260001080EC25D000EC359F7
:101AA0000EE2C2C0DEFFC3C0DDFFBC5103E1010E88
:101AB000BC6F04D0BC0502E1020EBC6F03D0080E5F
:101AC000DE6EDD6AB4C0E9FFB5C0EAFFEF92B4C0D4
:101AD000E9FFB5C0EAFFEF90B4C0E9FFB5C0EAFF87
:101AE000010EDB50EF12B4C0E9FFB5C0EAFFEE52C1
:101AF000DFCFEFFF000EDB50C25F010EDB50C35B98
:101B0000480ECC6F020ECD6FC1B124D0D9CFE9FF02
:101B1000DACFEAFFEE50ED101CE0BEC0F6FFBE2BA0
:101B2000BFC0F7FF000EBF23C0C0F8FFC0230800EE
:101B3000F550E66ECCC0E9FFCDC0EAFFCC2B000E1D
:101B4000CD23E552E750EF6EDF06010E01E2DB0622
:101B5000DDD71FD0D9CFE9FFDACFEAFFEE50ED1085
:101B600018E0BEC0E9FFBFC0EAFFBE2B000EBF23D6
:101B7000EF50E66ECCC0E9FFCDC0EAFFCC2B000EE3
:101B8000CD23E552E750EF6EDF06010E01E2DB06E2
:101B9000E1D7020EE15C02E2E16AE552E16EE55254
:101BA000E7CFD9FF1200D9CFE6FFE1CFD9FF020E70
:101BB000E126A8C0E9FFA9C0EAFFEE52EFCFDFFFA0
:101BC000DFCF14F014500001C75D000EC85903E2C6
:101BD000C7C0DFFF09D0DF50146E156A1450C75D0F
:101BE000C76F1550C859C86F010EDB6ADF50F36E1E
:101BF000010EDBCFF4FFF350F45C16E2010EDB5074
:101C0000EA6A480FE96E020EEA22EF50E66EC4C09F
:101C1000E9FFC5C0EAFFC42B000EC523E552E7501B
:101C2000EF6E010EDB2AE2D7000ED880C755000EFA
:101C3000C85528E2AAC0E9FFABC0EAFFEE52080E81
:101C4000EF6EAAC0E9FFABC0EAFF020EE926000E64
:101C5000EA22480EEE6E020EED6EA8C0E9FFA9C0A2
:101C6000EAFFEF50400B07E1AAC0E9FFABC0EAFF73
:101C7000C80EEF6E06D0AAC0E9FFABC0EAFF880E1F
:101C8000EF6E28D0AAC0E9FFABC0EAFFEE52080E03
:101C9000EF6EAAC0E9FFABC0EAFF020EE926000E14
:101CA000EA22400EEE6E020EED6EAAC0E9FFABC056
:101CB000EAFF840EEF6EC951CA11CB1109E007D0BB
:101CC000CBC0FBFFCAC0FAFF0001C951F96EF8DFB3
:101CD0000001C69F020EE15C02E2E16AE552E16E9C
:101CE000E552E7CFD9FF1200D9CFE6FFE1CFD9FF08
:101CF000E6520001C18F030EE66EE66AE66A540EF4
:101D0000E66E0F0EE66E48EC1EF0146E050EE15EF8
:101D10001450DF6ADF50146E156A100E145C000E4A
:101D2000155810E2DF50040DF3CFE9FFF4CFEAFFBE
:101D3000000EE926020EEA22EE6AEE6AEE6AEE6A0A
:101D4000DF2AE8D7648C010EE66EE66AE66AA70E23
:101D5000E66E000EE66E48EC1EF0146E050EE15EB7
:101D60001450649C0001080EB46F020EB56F000E93
:101D7000A86F020EA96FA8C0AAF0A9C0ABF042C21A
:101D8000A6F0A65103E1100EA56F12D0200EA56F8C
:101D9000010EE66EE66AA60EE66E000EE66E010E17
:101DA000E66EE66AA7EC1CF0146E060EE15E1450B7
:101DB000E552E552E7CFD9FF1200D9CFE6FFE1CFD8
:101DC000D9FF020EE126000EDE6E020EDD6EFD0E64
:101DD000DB50E824166EFE0EDB50040DF350162483
:101DE000040DF350146E156A020E0F0B05E0D89027
:101DF00015321432E806FBE1D89014361536D89027
:101E000014361536D9CFE9FFDACFEAFF1450EE26A3
:101E10001550ED22DECFE9FFDDCFEAFFEF9EFD0E8C
:101E2000DB500FE1FE0EEA6ADB34FE0BEA36E96EA8
:101E3000AC0EE926000EEA22DECFEEFFDDCFEDFF8D
:101E40000ED0FE0EEA6ADB34FE0BEA36E96EB40E03
:101E5000E926000EEA22DECFEEFFDDCFEDFFDECF7A
:101E6000E9FFDDCFEAFFEF9CDECFE9FFDDCFEAFF40
:101E7000040EE926000EEA22EF8C020EE15C02E27B
:101E8000E16AE552E16EE552E7CFD9FF1200D9CF02
:101E9000E6FFE1CFD9FF020EE126FE0EDB50156A08
:101EA000530F146E0F0E152214C0DEFF15C0DDFF98
:101EB000DECFE9FFDDCFEAFFFD0EDBCFEFFFDBA4D6
:101EC00007D0E66AFE0EDBCFE6FF77DFE552E5528C
:101ED000FD0EDBA208D0010EE66EFE0EDBCFE6FFA4
:101EE0006CDFE552E552020EE15C02E2E16AE55286
:101EF000E16EE552E7CFD9FF1200D9CFE6FFE1CF7F
:101F0000D9FF020EE126FE0EDB5020E1AAC0E9FF58
:101F1000ABC0EAFFEE52080EEF6EAAC0E9FFABC0FD
:101F2000EAFF020EE926000EEA22400EEE6E020ED5
:101F3000ED6EAAC0E9FFABC0EAFF8C0EEF6EB4C035
:101F4000E9FFB5C0EAFF840EEF6E3DD0FD0EDB5019
:101F5000E824166EFE0EDB50040DF3501624040D1B
:101F6000F3CF14F0F4CF15F0000E1426020E152254
:101F700014C0DEFF15C0DDFF840E146EDECFE9FF56
:101F8000DDCFEAFF1450EF12FD0EDB50E824166E91
:101F9000FE0EDB50040DF3501624010F040DF3CF99
:101FA00014F0F4CF15F0000E1426020E152214C002
:101FB000DEFF15C0DDFF840E146EDECFE9FFDDCF3E
:101FC000EAFF1450EF12020EE15C02E2E16AE55210
:101FD000E16EE552E7CFD9FF1200D9CFE6FFE1CF9E
:101FE000D9FF020EE126FD0EDB500FE0FE0EEA6A7D
:101FF000DB34FE0BEA36E96EB40EE926000EEA2267
:10200000EECFDEFFEDCFDDFF0ED0FE0EEA6ADB3451
:10201000FE0BEA36E96EAC0EE926000EEA22EECFA0
:10202000DEFFEDCFDDFFDECFE9FFDDCFEAFF020E01
:10203000E926000EEA22FB0EDBCFEEFFFC0EDBCF23
:10204000EDFFDECFE9FFDDCFEAFFEE52FA0EDBCF88
:10205000EFFF400E146EDECFE9FFDDCFEAFF145034
:10206000EF16880E146EDECFE9FFDDCFEAFF1450C5
:10207000EF12FD0EDB500CE0FE0EEA6ADB34FE0BC5
:10208000EA36E96EB40EE926000EEA22EF740BD0B0
:10209000FE0EEA6ADB34FE0BEA36E96EAC0EE92688
:1020A000000EEA22EF74DECF14F0DDCF15F014C07D
:1020B000F3FF15C0F4FF020EE15C03E200D0E16A19
:1020C000E552E16EE552E7CFD9FF1200D9CFE6FF26
:1020D000E1CFD9FF64A84ED0FE0EEA6ADB34FE0BD6
:1020E000EA36E96EB40EE926000EEA22EE50EFCF92
:1020F000EAFFE96E400EEE16EE6AEE6AEE6AFE0E3A
:10210000EA6ADB34FE0BEA36E96EB40EE926000E0D
:10211000EA22EE50EFCFEAFFE96EEE7CFE0EEA6AAD
:10212000DB34FE0BEA36E96EB40EE926000EEA2235
:10213000EF74400E146EFE0EEA6ADB34FE0BEA36D4
:10214000E96EB40EE926000EEA22EE50EFCFEAFF68
:10215000E96E1450EF16FE0EEA6ADB34FE0BEA3627
:10216000E96EB40EE926000EEA22EE50EFCFEAFF48
:10217000E96EEF7CE552E7CFD9FF120005D0646A23
:10218000606A0001A56B00D012000001A55114E1A6
:10219000646A606A160E616E0F019F0E5B6F7B0EA4
:1021A000606ED08EA284A084F28E64B602D0648663
:0A21B000FCD70001010EA56F12001C
:0621BA000000FF00000020
:1021C000000000000000000000000000000000000F
:1021D00000000000000000000000000000000000FF
:1021E00000000000000000000000000000000000EF
:1021F00000000000000000000000FF0000000000E0
:1022000000000000000000000000000000000000CE
:1022100000000000000000000000000000000000BE
:1022200000000000000000000000000000000000AE
:10223000000000000000000000000000000000009E
:0631BA00020140511F0B51
:1031C000010801E04ED04051600BE842E842E8427D
:1031D000E842E842010801E044D0445103E04405DC
:1031E00001E03FD04151220A37E0030A2AE0010AF8
:1031F00017E0210A0EE0010A01E033D00001F00ED1
:10320000BE6F000EBF6F080EC26FC36BC181C18F4E
:1032100028D00001F00EBE6F000EBF6FC18F21D00D
:1032200046C2C7F047C2C8F00001500EC46F020E7C
:10323000C56F740EC96F370ECA6F000ECB6FC68F85
:1032400010D00001D80EBE6F020EBF6F070EC26F06
:10325000C36BC10EC16F05D042C2EBF00001C18F3C
:1032600000D012000201D86B4B0ED96FDA6BDB6B0A
:10327000DC6BDD6B080EDE6F0001DE6BDD6B1A0EA2
:10328000E66E020EE66E47EC0FF0E552E5521E0EBA
:10329000E66E030EE66E47EC0FF0E552E552400E87
:1032A000E66E580EE66E020EE66EE66A030EE66EF7
:1032B000EDEC0FF0146E050EE15E1450F3CFE7F065
:1032C000F4CFE8F00001E96BEA6B1200D9CFE6FF1A
:1032D000E1CFD9FF0001DD6BE751E81102E1000EFB
:1032E00008D0E7C0E9FFE8C0EAFFEF50800B01E03B
:1032F000010E000945E1FC0EDBCF14F0E7C0E9FF49
:10330000E8C0EAFFEE52EF50D880145408E2E7C05C
:10331000E9FFE8C0EAFFEE52FC0EEFCFDBFFDD6B0A
:10332000FC0EDB50DD5D19E2DD51EA6A580FE96EF3
:10333000020EEA22EF50E66EDD51E76EFD0EDBCFA6
:10334000E9FFFE0EDBCFEAFFE750E926000EEA2296
:10335000E552E750EF6EDD2BE3D7400EE66E580ED8
:10336000E66E020EE66EE66A030EE66EEDEC0FF018
:10337000146E050EE15E1450F3CFE7F0F4CFE8F0E1
:103380000001DD5100D0E552E7CFD9FF1200D9CFBF
:10339000E6FFE1CFD9FFA0940001DE510CE1FD0E64
:1033A000DBCFDFF0FE0EDBCFE0F0FC0EDBCFE5F095
:1033B000010EE66FDE6FA084E552E7CFD9FF120061
:1033C000D9CFE6FFE1CFD9FF030EE126A09400019B
:1033D000DE5102E0A0842FD0DF6AFD0EDBCF08F0C3
:1033E000FE0EDBCF09F0DE5208C0DEFF09C0DDFFB4
:1033F000DD52DF2ADF50146E156AFF0E141801E14A
:10340000155001E10BD0010EDBCFE9FFDB2A020EE4
:10341000DBCFEAFF01E3DB2AEF50EBE1FD0EDBCF70
:10342000DFF0FE0EDBCFE0F0DFCFE5F00001010EB4
:10343000E66FDE6FA084030EE15C02E2E16AE55212
:10344000E16EE552E7CFD9FF1200D9CFE6FFE1CF19
:10345000D9FF040EE126A0940001DE5102E0A08411
:103460003CD0DF6AD950FC0FE96EFF0EDA20EA6E1D
:10347000010EEECFDBFF020EEECFDBFF030EEECF31
:10348000DBFFDF2ADF50146E156AFF0E141801E10E
:10349000155001E112D0D950010FE96EDACFEAFFE1
:1034A000EFCFF6FFEE2AEFCFF7FF000EEE22EFCFC1
:1034B000F8FFEE220800F550E4E1FC0EDBCFDFF070
:1034C000FD0EDBCFE0F0FE0EDBCFE1F0DFCFE5F06D
:1034D0000001E66B010EDE6FA084040EE15C02E2E7
:1034E000E16AE552E16EE552E7CFD9FF1200D9CF8C
:1034F000E6FFE1CFD9FF020EE126A0940001E951D9
:10350000EA1102E1000E08D0E9C0E9FFEAC0EAFFD3
:10351000EF50800B01E0010E000902E0A0848AD088
:10352000030EDE5D01E1DE6BDE5102E1A08482D09C
:10353000020EDE5D16E1E66A000EE66EE66A010E38
:10354000E66E030EE66EEDEC0FF0146E050EE15E16
:103550001450F3CFE9F0F4CFEAF00001030EDE6F70
:1035600068D0DE0566E1400E146E156AE551145C04
:10357000000E155803E2400EDF6E02D0E5C0DFFFFB
:10358000DF50E55DE56F980EE26F020EE36F010E0E
:10359000DFCFDBFFE6511AE1010EDB5016E0DFC0A2
:1035A000F6FFE0C0F7FFE1C0F8FF0800F550E2C009
:1035B000E9FFE3C0EAFFEF6EE22B000EE323DF2B0F
:1035C000E023E123010EDB06E7D715D0010EDB5027
:1035D00012E0DFC0E9FFE0C0EAFFEF50E2C0E9FF20
:1035E000E3C0EAFFEF6EE22B000EE323DF2BE023C4
:1035F000010EDB06EBD7E55108E1400EDF5C03E18D
:10360000020EDE6F02D0030EDE6FDFCFE6FF980EF4
:10361000E66E020EE66E010EE66E030EE66EEDEC51
:103620000FF0146E050EE15E1450F3CFE9F0F4CF05
:10363000EAF0A084020EE15C02E2E16AE552E16E8A
:08364000E552E7CFD9FF1200AB
:08364800DACFE4FFE2CFDAFF64
:10365000E9CFE4FFEACFE4FFF6CFE4FFF7CFE4FFE2
:10366000F8CFE4FFF5CFE4FFF3CFE4FFF4CFE4FFBE
:10367000FACFE4FFFBCFE4FF00EE00F0140EE80405
:1036800003E3EECFE4FFFBD700EE14F0080EE804EE
:1036900003E3EECFE4FFFBD7E65257EC08F0E55228
:1036A00000EE1BF0080EE80403E3E5CFEDFFFBD7C7
:1036B00000EE13F0140EE80403E3E5CFEDFFFBD7B3
:1036C000E5CFFBFFE5CFFAFFE5CFF4FFE5CFF3FF52
:1036D000E5CFF5FFE5CFF8FFE5CFF7FFE5CFF6FF44
:1036E000E5CFEAFFE5CFE9FFE5CFDAFF1100D8CF5C
:1036F000E4FFE0CFE4FFE46EDACFE4FFE2CFDAFFED
:10370000E652E552E5CFDAFFE550E5CFE0FFE5CF41
:10371000D8FF100005D8C5EC10F085D8FED71200F0
:103720000F0EC11202D807EF08F0D9CFE6FFE1CFA4
:10373000D9FFE652DF6ADF50146E156A400E145C42
:10374000000E155809E2DF50EA6A600FE96E000EBC
:10375000EA22EF6ADF2AEFD70001A06BA16BA26B10
:10376000F00E8B169416F1EC1DF0E552E552E7CF02
:10377000D9FF1200D9CFE6FFE1CFD9FF040EE12631
:10378000D880000E02015055C20E5155010E5255FF
:10379000000E535501E23DD050C2D8F251C2D9F2C9
:1037A00052C2DAF253C2DBF2186A1B0E196EB70E60
:1037B0001A6E1B6A18C006F019C007F01AC008F08C
:1037C0001BC009F0D8C20BF0D9C20CF0DAC20DF060
:1037D000DBC20EF024EC1EF006C014F007C015F09A
:1037E00008C016F009C017F01406000E155A165A34
:1037F000175A14C0DFFF010E15C0DBFF020E16C002
:10380000DBFF030E17C0DBFFDF50AF6E010EDB5096
:10381000B06E040EE15C02E2E16AE552E16EE5524F
:10382000E7CFD9FF120020D8200E0001E76EA519BE
:10383000E8AE02D0E73402D0E750A55D03E3645060
:10384000020B01E010D00001DE510BE1000EE66E2C
:103850003D0EE66E000EE66E25EC1AF0E552E552DE
:10386000E55277EC1AF01200D9CFE6FFE1CFD9FF8D
:10387000E652DF6A0001F851F91104E1100EF86F09
:10388000270EF96FF807000EF95B0DEC1EF0F350F0
:10389000DF6E010EDF6EDF5002E08B8401D08B946F
:1038A00064A20BD00001F851F91106E18B708BA0D6
:1038B00002D08B8201D08B922ED00001A55103E162
:1038C0008B908B9228D0A50503E18B808B8223D02F
:1038D000020EA55D03E18B808B921DD0040EA55DC9
:1038E00003E18B908B8217D0100EA55D07E10001DC
:1038F000F851F91102E18B708B920DD0200EA55D6D
:103900000AE10001F851F91106E18B708BA002D099
:103910008B9201D08B82E552E552E7CFD9FF12009E
:103920001200120012001200DDEF18F0120032EF48
:1039300019F064840001080EA36F070EA46FA3079B
:10394000000EA45BA351A411FAE164941200D9CF34
:10395000E6FFE1CFD9FFFD0EDBCF08F0FE0EDBCF97
:1039600009F0720E081801E1095033E0E868081800
:1039700002E17F0E09182BE0740E081801E10950CE
:1039800024E0750E081801E109501DE0730E0818B7
:1039900001E1095016E0030E081801E109500FE09B
:1039A000020E081801E1095008E0010E081801E1B3
:1039B000095001E010D0BBDF0FD0B8DF0DD0B4DF6D
:1039C0000BD0B0DF09D0ACDF07D0ABDF05D0ABDF69
:1039D00003D0000001D000D0010E00D0E552E7CFA7
:0439E000D9FF1200F9
:0C39E4001201000202000008D8040A00D2
:1039F00001000102000109024300020100C0320976
:103A00000400000102020100052400100104240248
:103A100002052406000105240100010705820308B0
:103A2000000209040100020A000000070503024029
:103A30000000070583024000000403090434034D1D
:103A4000006900630072006F006300680069007025
:103A500000200054006500630068006E006F006C79
:103A6000006F0067007900200049006E0063002E9F
:103A70000034034300440043002000520053002D53
:103A800000320033003200200045006D0075006CEC
:103A9000006100740069006F006E00200044006542
:103AA000006D006F00F63900393A003D3A00713A76
:013AB0000015
:0E3AB200000EF66E100EF76E000EF86E01019B
:103AC0000900F550456F0900F550466F03E1456761
:103AD00001D03DD00900F550406F0900F550416F0D
:103AE0000900F550426F09000900F550E96E090020
:103AF000F550EA6E090009000900F550436F09000E
:103B0000F550446F09000900F6CF47F1F7CF48F1AF
:103B1000F8CF49F140C1F6FF41C1F7FF42C1F8FFBC
:103B20000101435302E1445307E00900F550EE6EF2
:103B30004307F8E24407F9D747C1F6FF48C1F7FF4A
:103B400049C1F8FF01014507000E465BBFD71200CF
:103B500009C013F008C012F007C011F007500C02A2
:103B6000F4CF05F0F3CF04F008500D02F4CF07F0C6
:103B7000F3CF06F00C02F3500526F4500622E86A53
:103B8000072211500D02F3500526F4500622E86A70
:103B9000072209500C02F3500626F4500722095060
:103BA0000D02086AE86A0822F3500726F45008223A
:103BB00011500E02F3500626F4500722096AE86AF3
:103BC0000822092212500E02F3500726F450082250
:103BD000E86A092213500E02F3500826F450092215
:023BE000000CD7
:0E3BE200BA0EF66E210EF76E000EF86E080099
:103BF000F5CFF6FFF76AF86AF6AE02D0F768F86814
:103C0000A68EA69CA684A688F29E550EA76EAA0E26
:103C1000A76EA6820000F28E1200BA0EF66E210E7A
:103C2000F76E000EF86E0800F5CF14F0156A14BE9A
:103C300015680001141C01E1151C03E1010E03D0FD
:083C400002D0000E00D01200BA
:083C4800056A046A036A026ABE
:103C5000200EE76ED890063607360836093602364B
:103C60000336043605360B50025C0C5003580D50D9
:103C700004580E50055809E30B50025E0C50035ACD
:103C80000D50045A0E50055A062AE72EE4D71200AA
:103C9000FE0EE3CFE9FFFF0EE3CFEAFFE9CFF3FF2C
:103CA000EACFF4FFFB0EE35003E1FC0EE35009E022
:103CB000FB0EE30602E2FC0EE306FD0EE350EE6EA1
:043CC000F1D7120026
:0C3CC400000EF36E00EE00F0030E01D8BD
:103CD0001200EA6002D0EE6AFCD7F350E9601200ED
:043CE000EE6AFCD7B5
:0C3CE40011EE00F021EE00F0F86A019CE7
:103CF00059EC1DF084EC1EF08AEC1BF0FBD712008F
:083D0000746573743132330065
:023D08001200A7
:023D0A000000B7
:020000040030CA
:0100000000FF
:0100010038C6
:0100020001FC
:010003001EDE
:0100050000FA
:0100060001F8
:0100080003F4
:01000900C036
:01000A0003F2
:01000B00E014
:01000C0003F0
:01000D0040B2
:00000001FF
