:020000040000FA
:0600000028EF16F01200CB
:0600080024EF13F01200CA
:0600180077EF13F0120067
:0E1000000100762C0000F1000000030000004B
:02100E00D9CF38
:10101000E6FFE1CFD9FFE6520F015F6B626A160E61
:10102000616E9F0E5B6F7B0E606E648C5C6B030E5B
:10103000E66EE66AE66A540EE66E0F0EE66EFEECAB
:1010400015F0146E050EE15E1450649CDF6ADF50EB
:10105000146E156A100E145C000E155810E2DF5065
:10106000040DF3CFE9FFF4CFEAFF000EE926020EEC
:10107000EA22EE6AEE6AEE6AEE6ADF2AE8D70F012C
:10108000160E536F62A602D06296FCD701015C6B0C
:10109000616B626B636B6498080E4F6F020E506F4A
:1010A000416B406BE552E552E7CFD9FF1200D9CF33
:1010B000E6FFE1CFD9FFE6520101400507E164BA3E
:1010C00005D0626A60806088020E406F6250040B37
:1010D00005E06050040B02E06294B8D864A202D02C
:1010E000A19483D06250010B12E06050010B0FE01D
:1010F0008EDF0101040E406F0201400E026F020EEE
:10110000036F080E016F006B8C0E0013629062502B
:10111000100B05E06050100B02E086D86298625018
:10112000400B13E06050400B10E0010EE66EE66AE3
:10113000000EE66EE66A730EE66EE66A90EC14F058
:10114000146E060EE15E1450629C6250200B04E0A7
:101150006050200B01E04ED86250020B14E060504A
:10116000020B11E0010EE66EE66A000EE66EE66A1C
:10117000E6687F0EE66E90EC14F0146E060EE15EEB
:1011800014500F015F6B040E0101E76E4019E8AEC9
:1011900002D0E73402D0E750405D02E2A19425D0AE
:1011A00060A622D0DF6A040EDF5C1EE262A61BD0BE
:1011B00063CF6AF16296780E01016A1502E15BD88D
:1011C00010D0000EE66EE66A6A0EE66E010EE66E5E
:1011D000720EE66EE66A90EC14F0146E060EE15E96
:1011E0001450DF2AE0D700D0A194E552E552E7CFB2
:1011F000D9FF12000F0153A115D043C1E9FF44C12B
:10120000EAFFEF5080080DE14FC1E9FF50C1EAFF4E
:10121000EF50840806E143C1E9FF44C1EAFF8C0EA8
:10122000EF6E5391629A1200608462986482000E9D
:10123000E66EE66AE66EE66A750EE66EE66A90ECC3
:1012400014F0146E060EE15E14501200000EE66EED
:10125000E66AE66EE66A740EE66EE66A90EC14F0F4
:10126000146E060EE15E14506492609462A402D083
:101270006294FCD71200D9CFE6FFE1CFD9FFE65246
:10128000FD0E01016A155AE17E0E6A15E8407F0BDA
:10129000040DF3CF43F1F4CF44F1000E4327020EC7
:1012A000442343C145F144C146F1457543C1E9FFBB
:1012B00044C1EAFFEF503C0BE842E8420D083CE134
:1012C00043C1E9FF44C1EAFF020EE926000EEA220B
:1012D000EECF14F0EFCF15F0480E141802E1020E15
:1012E000151828E143C1E9FF44C1EAFF020EE926CF
:1012F000000EEA22400EEE6E020EED6EDF6ADF5047
:10130000146E156A080E145C000E155813E2DF50B7
:10131000EA6A480FE96E020EEA22EF50E66EDF50ED
:10132000EA6A400FE96E020EEA22E552E750EF6EDC
:10133000DF2AE5D70DD801D02ED805D0FD0E6A15CD
:10134000040801E14FD8E552E552E7CFD9FF12007A
:101350004FC1E9FF50C1EAFFEF50800B05E04FC1DC
:10136000E9FF50C1EAFFEF6A0101576B586B5D6BF3
:101370005E6B5C6BBDD8000EE66EE66AE66EE66AF2
:10138000030EE66EE66A90EC14F0146E060EE15E53
:10139000145070EF0CF0020E0101585D03E1D3EC24
:1013A0000DF01FD06FD801016B511AE145C1E9FF63
:1013B00046C1EAFFEE52080EEF6E45C1E9FF46C195
:1013C000EAFF020EE926000EEA22400EEE6E020E41
:1013D000ED6E45C1E9FF46C1EAFF8C0EEF6E01D00C
:1013E0006B6B1200D9CFE6FFE1CFD9FFE6524FC1B8
:1013F000E9FF50C1EAFFEF50400B01E0010EDF6E44
:1014000001014F75080E405D0DE142C25CFF0F0106
:101410005C51000804E20101100E406F03D001018D
:10142000040E406F580528E14FC1E9FF50C1EAFFA3
:10143000020EE926000EEA22480EEE6E020EED6E56
:1014400024DB020E0101575D07E14FC1E9FF50C1E6
:10145000EAFF840EEF6E0FD0DF5007E14FC1E9FFC6
:1014600050C1EAFFC80EEF6E06D04FC1E9FF50C170
:10147000EAFF880EEF6E01D005D8E552E552E7CFBE
:10148000D9FF1200D9CFE6FFE1CFD9FF020EE12646
:101490000101586B4FC1E9FF50C1EAFFEF6A040E2A
:1014A0004F19146E50C115F014C0DEFF15C0DDFFDA
:1014B000DECFE9FFDDCFEAFFEF6A61AF0FD0645105
:1014C0006511661109E007D066C1FBFF65C1FAFF2F
:1014D00001016451F96EF8DF0101619F020EE15CC8
:1014E00002E2E16AE552E16EE552E7CFD9FF120070
:1014F00002014051600BE842E842E842E842E8421B
:10150000000901E058D041510C0A54E00B0A43E0B5
:101510000C0A35E0010A26E00B0A22E0020A20E06C
:10152000030A1CE0080A10E0010A0CE00F0A08E0B8
:10153000030A01E03FD001015C8F080E406F3BD0F1
:10154000C7D839D0D1DB37D00101410E596F010E18
:101550005A6F5C81010E5D6F5C8F2DD060D92BD0EE
:101560002BD829D044510101596F5A6B420E59278B
:10157000010E5A235C81010E5D6F5C8F1CD001014E
:101580005C8F02014451EA6A420FE96E010EEA22C1
:1015900042C2EFFF10D0000EE66EE66AE66EE66A23
:1015A000020EE66EE66A90EC14F0146E060EE15E32
:1015B000145001D000D01200D9CFE6FFE1CFD9FFFF
:1015C000040EE1260201420510E140511F0B000903
:1015D0000CE101015C8F030E0201415D04E1010198
:1015E000010E696F02D00101696B0201425166E18F
:1015F00040511F0B020862E144510F0B00095EE0ED
:1016000001015C8F020144BF10D044510F0BE96E01
:10161000EA6AD890E936EA36470EE926010EEA2250
:10162000EECFDEFFEDCFDDFF0FD044510F0BE96EA3
:10163000EA6AD890E936EA364F0EE926010EEA2228
:10164000EECFDEFFEDCFDDFF030E415D07E1DECF24
:10165000E9FFDDCFEAFF840EEF6E30D044510F0B6F
:10166000156A530F146E0F0E1522020E14C0DBFF05
:10167000030E15C0DBFF020EDBCFE9FF030EDBCF4D
:10168000EAFFEF9044AF0DD0DECFE9FFDDCFEAFFF8
:10169000EF6ADF74DECFE9FFDDCFEAFF400EEF6EC9
:1016A0000DD0DECFE9FFDDCFEAFF880EEF6EDF74ED
:1016B000DECFE9FFDDCFEAFFC80EEF6E040EE15C7E
:1016C00002E2E16AE552E16EE552E7CFD9FF12008E
:1016D000800E0201405D01E0A1D00101C00E5C6FEF
:1016E00002014351030A56E0010A10E0030A03E035
:1016F00001015C6B93D00101B60E596F290E5A6F30
:10170000000E5B6F120E5D6F5E6B88D0770E146EED
:101710002A0E156E000E166E42C217F0186A196A6C
:10172000030E0C6E0D6A0E6A17C007F018C008F0A1
:1017300019C009F091EC15F004C017F005C018F0BD
:1017400006C019F014501724F36E15501820F46ECB
:1017500016501920F86EF4CFF7FFF3CFF6FF09000B
:10176000F5CF59F10900F5CF5AF10800F5CF5BF13B
:1017700059C1F6FF5AC1F7FF5BC1F8FF020EF6260A
:10178000000EF722F8220900F5CF5DF10A00F5CF2F
:101790005EF144D0030E425D3EE27A0E146E2A0ED4
:1017A000156E000E166E42C217F0186A196A030E03
:1017B0000C6E0D6A0E6A17C007F018C008F019C049
:1017C00009F091EC15F004C017F005C018F006C040
:1017D00019F014501724F36E15501820F46E16509B
:1017E0001920F86EF4CFF7FFF3CFF6FF0900F5CF1D
:1017F00059F10900F5CF5AF10800F5CF5BF159C155
:10180000F6FF5AC1F7FF5BC1F8FF0800F550010170
:101810005D6F5E6B02D001015C6B00D01200D9CF0E
:10182000E6FFE1CFD9FF020EE1260201486B496BCA
:1018300040511F0B020A12E0030A0DE0010A01E009
:101840003BD001015C8F020148810101690502E181
:101850000201488331D001015C8F2ED001015C8FE1
:10186000020144BF10D044510F0BE96EEA6AD890D0
:10187000E936EA36470EE926010EEA22EECFDEFF10
:10188000EDCFDDFF0FD044510F0BE96EEA6AD8901F
:10189000E936EA364F0EE926010EEA22EECFDEFFE8
:1018A000EDCFDDFFDECFE9FFDDCFEAFFEF50040B28
:1018B00002E0010E486F00D001015CAF07D0480E76
:1018C000596F020E5A6F5C81020E5D6F020EE15C71
:1018D00002E2E16AE552E16EE552E7CFD9FF12007C
:1018E000649801015CBF4AD061AF28D0020E586FE6
:1018F0004FC1E9FF50C1EAFFEE52EF6A4FC1E9FF65
:1019000050C1EAFFC80EEF6E45C1E9FF46C1EAFFCC
:10191000EE52080EEF6E45C1E9FF46C1EAFF020E26
:10192000E926000EEA22480EEE6E020EED6E45C16B
:10193000E9FF46C1EAFFC80EEF6E1FD045C1E9FFBF
:1019400046C1EAFFEE52080EEF6E45C1E9FF46C1FF
:10195000EAFF020EE926000EEA22400EEE6E020EAB
:10196000ED6E45C1E9FF46C1EAFF8C0EEF6E4FC137
:10197000E9FF50C1EAFF840EEF6E86D061BF84D0CC
:10198000020140AF59D001015D510201465D0101E4
:101990005E510201475904E246C25DF147C25EF161
:1019A00074D80101010E586F45C1E9FF46C1EAFF35
:1019B000EE52080EEF6E45C1E9FF46C1EAFF020E86
:1019C000E926000EEA22400EEE6E020EED6E45C1D3
:1019D000E9FF46C1EAFF800EEF6E6B6B43C1E9FF82
:1019E00044C1EAFFEE52080EEF6E43C1E9FF44C165
:1019F000EAFF020EE926000EEA22400EEE6E020E0B
:101A0000ED6E43C1E9FF44C1EAFF840EEF6E010EA3
:101A10006B6F4FC1E9FF50C1EAFF020EE926000ECD
:101A2000EA22480EEE6E020EED6E4FC1E9FF50C184
:101A3000EAFFC80EEF6E28D00101020E586F4FC1A9
:101A4000E9FF50C1EAFFEE52EF6A4FC1E9FF50C112
:101A5000EAFFC80EEF6E45C1E9FF46C1EAFFEE524C
:101A6000080EEF6E45C1E9FF46C1EAFF020EE92606
:101A7000000EEA22480EEE6E020EED6E45C1E9FF41
:101A800046C1EAFFC80EEF6E1200D9CFE6FFE1CFE4
:101A9000D9FF020EE1260101080E5D5D000E5E59C0
:101AA0000EE25DC1DEFF5EC1DDFF575103E1010EB5
:101AB000576F04D0570502E1020E576F03D0080E8E
:101AC000DE6EDD6A4FC1E9FF50C1EAFFEF924FC100
:101AD000E9FF50C1EAFFEF904FC1E9FF50C1EAFFB3
:101AE000010EDB50EF124FC1E9FF50C1EAFFEE5289
:101AF000DFCFEFFF000EDB505D5F010EDB505E5B62
:101B0000480E676F020E686F5CB124D0D9CFE9FF31
:101B1000DACFEAFFEE50ED101CE059C1F6FF592B69
:101B20005AC1F7FF000E5A235BC1F8FF5B23080080
:101B3000F550E66E67C1E9FF68C1EAFF672B000E4A
:101B40006823E552E750EF6EDF06010E01E2DB0687
:101B5000DDD71FD0D9CFE9FFDACFEAFFEE50ED1085
:101B600018E059C1E9FF5AC1EAFF592B000E5A2368
:101B7000EF50E66E67C1E9FF68C1EAFF672B000E10
:101B80006823E552E750EF6EDF06010E01E2DB0647
:101B9000E1D7020EE15C02E2E16AE552E16EE55254
:101BA000E7CFD9FF1200D9CFE6FFE1CFD9FF020E70
:101BB000E12643C1E9FF44C1EAFFEE52EFCFDFFF68
:101BC000DFCF14F014500101625D000E635903E28F
:101BD00062C1DFFF09D0DF50146E156A1450625DD8
:101BE000626F15506359636F010EDB6ADF50F36E4D
:101BF000010EDBCFF4FFF350F45C16E2010EDB5074
:101C0000EA6A480FE96E020EEA22EF50E66E5FC103
:101C1000E9FF60C1EAFF5F2B000E6023E552E75049
:101C2000EF6E010EDB2AE2D7000ED8806255000E5F
:101C3000635528E245C1E9FF46C1EAFFEE52080EAE
:101C4000EF6E45C1E9FF46C1EAFF020EE926000E2C
:101C5000EA22480EEE6E020EED6E43C1E9FF44C16A
:101C6000EAFFEF50400B07E145C1E9FF46C1EAFF3B
:101C7000C80EEF6E06D045C1E9FF46C1EAFF880EE7
:101C8000EF6E28D045C1E9FF46C1EAFFEE52080ECB
:101C9000EF6E45C1E9FF46C1EAFF020EE926000EDC
:101CA000EA22400EEE6E020EED6E45C1E9FF46C11E
:101CB000EAFF840EEF6E64516511661109E007D0EA
:101CC00066C1FBFF65C1FAFF01016451F96EF8DFDF
:101CD0000101619F020EE15C02E2E16AE552E16E00
:101CE000E552E7CFD9FF1200D9CFE6FFE1CFD9FF08
:101CF000E65201015C8F030EE66EE66AE66A540E58
:101D0000E66E0F0EE66EFEEC15F0146E050EE15E4B
:101D10001450DF6ADF50146E156A100E145C000E4A
:101D2000155810E2DF50040DF3CFE9FFF4CFEAFFBE
:101D3000000EE926020EEA22EE6AEE6AEE6AEE6A0A
:101D4000DF2AE8D7648C010EE66EE66AE66A420E88
:101D5000E66E010EE66EFEEC15F0146E050EE15E09
:101D60001450649C0101080E4F6F020E506F000E5C
:101D7000436F020E446F43C145F144C146F142C274
:101D800041F1415103E1100E406F12D0200E406F1F
:101D9000010EE66EE66A410EE66E010EE66E010E7B
:101DA000E66EE66A90EC14F0146E060EE15E1450D6
:101DB000E552E552E7CFD9FF1200D9CFE6FFE1CFD8
:101DC000D9FF020EE126000EDE6E020EDD6EFD0E64
:101DD000DB50E824166EFE0EDB50040DF350162483
:101DE000040DF350146E156A020E0F0B05E0D89027
:101DF00015321432E806FBE1D89014361536D89027
:101E000014361536D9CFE9FFDACFEAFF1450EE26A3
:101E10001550ED22DECFE9FFDDCFEAFFEF9EFD0E8C
:101E2000DB500FE1FE0EEA6ADB34FE0BEA36E96EA8
:101E3000470EE926010EEA22DECFEEFFDDCFEDFFF1
:101E40000ED0FE0EEA6ADB34FE0BEA36E96E4F0E68
:101E5000E926010EEA22DECFEEFFDDCFEDFFDECF79
:101E6000E9FFDDCFEAFFEF9CDECFE9FFDDCFEAFF40
:101E7000040EE926000EEA22EF8C020EE15C02E27B
:101E8000E16AE552E16EE552E7CFD9FF1200D9CF02
:101E9000E6FFE1CFD9FF020EE126FE0EDB50156A08
:101EA000530F146E0F0E152214C0DEFF15C0DDFF98
:101EB000DECFE9FFDDCFEAFFFD0EDBCFEFFFDBA4D6
:101EC00007D0E66AFE0EDBCFE6FF77DFE552E5528C
:101ED000FD0EDBA208D0010EE66EFE0EDBCFE6FFA4
:101EE0006CDFE552E552020EE15C02E2E16AE55286
:101EF000E16EE552E7CFD9FF1200D9CFE6FFE1CF7F
:101F0000D9FF020EE126FE0EDB5020E145C1E9FFBC
:101F100046C1EAFFEE52080EEF6E45C1E9FF46C129
:101F2000EAFF020EE926000EEA22400EEE6E020ED5
:101F3000ED6E45C1E9FF46C1EAFF8C0EEF6E4FC161
:101F4000E9FF50C1EAFF840EEF6E3DD0FD0EDB507D
:101F5000E824166EFE0EDB50040DF3501624040D1B
:101F6000F3CF14F0F4CF15F0000E1426020E152254
:101F700014C0DEFF15C0DDFF840E146EDECFE9FF56
:101F8000DDCFEAFF1450EF12FD0EDB50E824166E91
:101F9000FE0EDB50040DF3501624010F040DF3CF99
:101FA00014F0F4CF15F0000E1426020E152214C002
:101FB000DEFF15C0DDFF840E146EDECFE9FFDDCF3E
:101FC000EAFF1450EF12020EE15C02E2E16AE55210
:101FD000E16EE552E7CFD9FF1200D9CFE6FFE1CF9E
:101FE000D9FF020EE126FD0EDB500FE0FE0EEA6A7D
:101FF000DB34FE0BEA36E96E4F0EE926010EEA22CB
:10200000EECFDEFFEDCFDDFF0ED0FE0EEA6ADB3451
:10201000FE0BEA36E96E470EE926010EEA22EECF04
:10202000DEFFEDCFDDFFDECFE9FFDDCFEAFF020E01
:10203000E926000EEA22FB0EDBCFEEFFFC0EDBCF23
:10204000EDFFDECFE9FFDDCFEAFFEE52FA0EDBCF88
:10205000EFFF400E146EDECFE9FFDDCFEAFF145034
:10206000EF16880E146EDECFE9FFDDCFEAFF1450C5
:10207000EF12FD0EDB500CE0FE0EEA6ADB34FE0BC5
:10208000EA36E96E4F0EE926010EEA22EF740BD014
:10209000FE0EEA6ADB34FE0BEA36E96E470EE926ED
:1020A000010EEA22EF74DECF14F0DDCF15F014C07C
:1020B000F3FF15C0F4FF020EE15C03E200D0E16A19
:1020C000E552E16EE552E7CFD9FF1200D9CFE6FF26
:1020D000E1CFD9FF64A84ED0FE0EEA6ADB34FE0BD6
:1020E000EA36E96E4F0EE926010EEA22EE50EFCFF6
:1020F000EAFFE96E400EEE16EE6AEE6AEE6AFE0E3A
:10210000EA6ADB34FE0BEA36E96E4F0EE926010E71
:10211000EA22EE50EFCFEAFFE96EEE7CFE0EEA6AAD
:10212000DB34FE0BEA36E96E4F0EE926010EEA2299
:10213000EF74400E146EFE0EEA6ADB34FE0BEA36D4
:10214000E96E4F0EE926010EEA22EE50EFCFEAFFCC
:10215000E96E1450EF16FE0EEA6ADB34FE0BEA3627
:10216000E96E4F0EE926010EEA22EE50EFCFEAFFAC
:10217000E96EEF7CE552E7CFD9FF120005D0646A23
:10218000606A0101406B00D012000101405114E16E
:10219000646A606A160E616E0F019F0E5B6F7B0EA4
:1021A000606ED08EA284A084F28E64B602D0648663
:0A21B000FCD70101010E406F120080
:0621BA00020140511F0B61
:1021C000010801E04ED04051600BE842E842E8428D
:1021D000E842E842010801E044D0445103E04405EC
:1021E00001E03FD04151220A37E0030A2AE0010A08
:1021F00017E0210A0EE0010A01E033D001018B0E45
:10220000596F010E5A6F080E5D6F5E6B5C815C8FBB
:1022100028D001018B0E596F010E5A6F5C8F21D0AF
:1022200046C262F147C263F10101500E5F6F020EB8
:10223000606F720E646F270E656F000E666F618FA0
:1022400010D00101D80E596F020E5A6F070E5D6F44
:102250005E6BC10E5C6F05D042C286F101015C8FDE
:1022600000D012000201D86B4B0ED96FDA6BDB6B1A
:10227000DC6BDD6B080EDE6F0101796B786B1A0E7B
:10228000E66E020EE66E47EC0FF0E552E5521E0ECA
:10229000E66E030EE66E47EC0FF0E552E552400E97
:1022A000E66E580EE66E020EE66EE66A030EE66E07
:1022B000EDEC0FF0146E050EE15E1450F3CF82F1D9
:1022C000F4CF83F10101846B856B1200D9CFE6FF57
:1022D000E1CFD9FF0101786B8251831102E1000E39
:1022E00008D082C1E9FF83C1EAFFEF50800B01E013
:1022F000010E000945E1FC0EDBCF14F082C1E9FFBD
:1023000083C1EAFFEE52EF50D880145408E282C134
:10231000E9FF83C1EAFFEE52FC0EEFCFDBFF786BE3
:10232000FC0EDB50785D19E27851EA6A580FE96ECD
:10233000020EEA22EF50E66E7851E76EFD0EDBCF1B
:10234000E9FFFE0EDBCFEAFFE750E926000EEA22A6
:10235000E552E750EF6E782BE3D7400EE66E580E4D
:10236000E66E020EE66EE66A030EE66EEDEC0FF028
:10237000146E050EE15E1450F3CF82F1F4CF83F1B9
:102380000101785100D0E552E7CFD9FF1200D9CF33
:10239000E6FFE1CFD9FFA094010179510CE1FD0ED8
:1023A000DBCF7AF1FE0EDBCF7BF1FC0EDBCF80F1D1
:1023B000010E816F796FA084E552E7CFD9FF12003B
:1023C000D9CFE6FFE1CFD9FF030EE126A0940101AA
:1023D000795102E0A0842FD0DF6AFD0EDBCF08F038
:1023E000FE0EDBCF09F0DE5208C0DEFF09C0DDFFC4
:1023F000DD52DF2ADF50146E156AFF0E141801E15A
:10240000155001E10BD0010EDBCFE9FFDB2A020EF4
:10241000DBCFEAFF01E3DB2AEF50EBE1FD0EDBCF80
:102420007AF1FE0EDBCF7BF1DFCF80F10101010EEF
:10243000816F796FA084030EE15C02E2E16AE552EC
:10244000E16EE552E7CFD9FF1200D9CFE6FFE1CF29
:10245000D9FF040EE126A0940101795102E0A08485
:102460003CD0DF6AD950FC0FE96EFF0EDA20EA6E2D
:10247000010EEECFDBFF020EEECFDBFF030EEECF41
:10248000DBFFDF2ADF50146E156AFF0E141801E11E
:10249000155001E112D0D950010FE96EDACFEAFFF1
:1024A000EFCFF6FFEE2AEFCFF7FF000EEE22EFCFD1
:1024B000F8FFEE220800F550E4E1FC0EDBCF7AF1E4
:1024C000FD0EDBCF7BF1FE0EDBCF7CF1DFCF80F1A9
:1024D0000101816B010E796FA084040EE15C02E2C0
:1024E000E16AE552E16EE552E7CFD9FF1200D9CF9C
:1024F000E6FFE1CFD9FF020EE126A094010184514D
:10250000851102E1000E08D084C1E9FF85C1EAFF10
:10251000EF50800B01E0010E000902E0A0848AD098
:10252000030E795D01E1796B795102E1A08482D0DB
:10253000020E795D16E1E66A000EE66EE66A010EAD
:10254000E66E030EE66EEDEC0FF0146E050EE15E26
:102550001450F3CF84F1F4CF85F10101030E796FAC
:1025600068D0790566E1400E146E156A8051145CDE
:10257000000E155803E2400EDF6E02D080C1DFFF6F
:10258000DF50805D806F980E7D6F020E7E6F010EB2
:10259000DFCFDBFF81511AE1010EDB5016E07AC17B
:1025A000F6FF7BC1F7FF7CC1F8FF0800F5507DC145
:1025B000E9FF7EC1EAFFEF6E7D2B000E7E237A2BB2
:1025C0007B237C23010EDB06E7D715D0010EDB5001
:1025D00012E07AC1E9FF7BC1EAFFEF507DC1E9FF5C
:1025E0007EC1EAFFEF6E7D2B000E7E237A2B7B23CC
:1025F000010EDB06EBD7805108E1400EDF5C03E102
:10260000020E796F02D0030E796FDFCFE6FF980ECE
:10261000E66E020EE66E010EE66E030EE66EEDEC61
:102620000FF0146E050EE15E1450F3CF84F1F4CF79
:1026300085F1A084020EE15C02E2E16AE552E16EFE
:08264000E552E7CFD9FF1200BB
:08264800DACFE4FFE2CFDAFF74
:10265000E9CFE4FFEACFE4FFF6CFE4FFF7CFE4FFF2
:10266000F8CFE4FFF5CFE4FFF3CFE4FFF4CFE4FFCE
:10267000FACFE4FFFBCFE4FF00EE00F0140EE80415
:1026800003E3EECFE4FFFBD700EE14F0080EE804FE
:1026900003E3EECFE4FFFBD7E65257EC08F0E55238
:1026A00000EE1BF0080EE80403E3E5CFEDFFFBD7D7
:1026B00000EE13F0140EE80403E3E5CFEDFFFBD7C3
:1026C000E5CFFBFFE5CFFAFFE5CFF4FFE5CFF3FF62
:1026D000E5CFF5FFE5CFF8FFE5CFF7FFE5CFF6FF54
:1026E000E5CFEAFFE5CFE9FFE5CFDAFF1100D8CF6C
:1026F000E4FFE0CFE4FFE46EDACFE4FFE2CFDAFFFD
:10270000E652E552E5CFDAFFE550E5CFE0FFE5CF51
:10271000D8FF100005D8C5EC10F084D8FED7120001
:102720000F0EC11202D807EF08F0D9CFE6FFE1CFB4
:10273000D9FFE652DF6ADF50146E156A400E145C52
:10274000000E155809E2DF50EA6A600FE96E000ECC
:10275000EA22EF6ADF2AEFD70001E06BE16BE36B5F
:10276000E46BF00E8B169416E552E552E7CFD9FFD5
:102770001200D9CFE6FFE1CFD9FF040EE126D880C1
:10278000000E02015055C20E5155010E5255000E59
:10279000535501E23DD050C2D8F251C2D9F252C2D3
:1027A000DAF253C2DBF2186A1B0E196EB70E1A6EFC
:1027B0001B6A18C006F019C007F01AC008F01BC049
:1027C00009F0D8C20BF0D9C20CF0DAC20DF0DBC2AE
:1027D0000EF0DAEC15F006C014F007C015F008C0D2
:1027E00016F009C017F01406000E155A165A175A9B
:1027F00014C0DFFF010E15C0DBFF020E16C0DBFFA9
:10280000030E17C0DBFFDF50AF6E010EDB50B06E62
:10281000040EE15C02E2E16AE552E16EE552E7CFC7
:10282000D9FF120020D8200E0101E76E4019E8AE52
:1028300002D0E73402D0E750405D03E36450020B5E
:1028400001E010D0010179510BE16C0EE66E2C0E07
:10285000E66E000EE66E25EC12F0E552E552E5520A
:1028600077EC12F012000001F251F31104E1100EA6
:10287000F26F270EF36FF207000EF35B64A20AD02B
:10288000F251F31106E18B708BA002D08B8201D044
:102890008B922ED00101405103E18B908B9228D076
:1028A000400503E18B808B8223D0020E405D03E163
:1028B0008B808B921DD0040E405D03E18B908B8248
:1028C00017D0100E405D07E10001F251F31102E153
:1028D0008B708B920DD0200E405D0AE10001F25109
:1028E000F31106E18B708BA002D08B9201D08B820A
:1028F00012001200120012001200DDEF10F01200A0
:1029000032EF11F064840001080EE56F070EE66FE8
:10291000E507000EE65BE551E611FAE1649412006A
:10292000D9CFE6FFE1CFD9FFFD0EDBCF08F0FE0ED9
:10293000DBCF09F0720E081801E1095033E0E868B6
:10294000081802E17F0E09182BE0740E081801E147
:10295000095024E0750E081801E109501DE0730EBE
:10296000081801E1095016E0030E081801E10950AA
:102970000FE0020E081801E1095008E0010E0818E6
:1029800001E1095001E010D0BBDF0FD0B8DF0DD05E
:10299000B4DF0BD0B0DF09D0ACDF07D0ABDF05D0A0
:1029A000ABDF03D0000001D000D0010E00D0E55213
:0629B000E7CFD9FF120081
:0A29B6001201000202000008D8041C
:1029C0000A0001000102000109024300020100C0E7
:1029D0003209040000010202010005240010010474
:1029E00024020205240600010524010001070582D6
:1029F0000308000209040100020A000000070503A1
:102A0000024000000705830240000004030904346B
:102A1000034D006900630072006F00630068006985
:102A2000007000200054006500630068006E006FB5
:102A3000006C006F0067007900200049006E0063A1
:102A4000002E003403430044004300200052005392
:102A5000002D00320033003200200045006D00756B
:102A6000006C006100740069006F006E002000447B
:102A70000065006D006F00C829000B2A000F2A00B6
:032A8000432A00E6
:0C2A8400000EF66E100EF76E000EF86EDD
:102A900000010900F550EC6F0900F550ED6F03E1FE
:102AA000EC6701D03DD00900F550E76F0900F55003
:102AB000E86F0900F550E96F09000900F550E96E6B
:102AC0000900F550EA6E090009000900F550EA6FA7
:102AD0000900F550EB6F09000900F6CFEEF0F7CFD3
:102AE000EFF0F8CFF0F0E7C0F6FFE8C0F7FFE9C07D
:102AF000F8FF0001EA5302E1EB5307E00900F5504B
:102B0000EE6EEA07F8E2EB07F9D7EEC0F6FFEFC08A
:102B1000F7FFF0C0F8FF0001EC07000EED5BBFD738
:022B20001200A1
:0E2B220009C013F008C012F007C011F00750F0
:102B30000C02F4CF05F0F3CF04F008500D02F4CFEF
:102B400007F0F3CF06F00C02F3500526F4500622EE
:102B5000E86A072211500D02F3500526F4500622B0
:102B6000E86A072209500C02F3500626F4500722A7
:102B700009500D02086AE86A0822F3500726F4504B
:102B8000082211500E02F3500626F4500722096A5B
:102B9000E86A0822092212500E02F3500726F45068
:102BA0000822E86A092213500E02F3500826F45056
:042BB0000922000CEA
:0C2BB400056A046A036A026A200EE76EDC
:102BC000D8900636073608360936023603360436FC
:102BD00005360B50025C0C5003580D5004580E5033
:102BE000055809E30B50025E0C50035A0D50045A6D
:0C2BF0000E50055A062AE72EE4D712000A
:042BFC00FE0EE3CF17
:102C0000E9FFFF0EE3CFEAFFE9CFF3FFEACFF4FFDE
:102C1000FB0EE35003E1FC0EE35009E0FB0EE3067C
:102C200002E2FC0EE306FD0EE350EE6EF1D7120059
:102C3000000EF36E00EE00F0030E01D81200EA6001
:102C400002D0EE6AFCD7F350E9601200EE6AFCD7BE
:102C500011EE00F021EE00F0F86A019C42EC15F054
:0C2C60003AEC16F08AEC13F0FBD71200DF
:042C6C0074657374A4
:042C700031323300CA
:022C740012004C
:032C76000000005B
:020000040030CA
:0100000000FF
:0100010032CC
:0100020001FC
:010003001EDE
:0100050000FA
:0100060001F8
:0100080003F4
:01000900C036
:01000A0003F2
:01000B00E014
:01000C0003F0
:01000D0040B2
:00000001FF
